{
  "abi": [
    {
      "type": "constructor",
      "inputs": [],
      "stateMutability": "nonpayable"
    },
    {
      "type": "receive",
      "stateMutability": "payable"
    },
    {
      "type": "function",
      "name": "actualOutcome",
      "inputs": [],
      "outputs": [
        {
          "name": "",
          "type": "uint8",
          "internalType": "enum PredictionMarket.Outcome"
        }
      ],
      "stateMutability": "view"
    },
    {
      "type": "function",
      "name": "bettingEndTime",
      "inputs": [],
      "outputs": [
        {
          "name": "",
          "type": "uint256",
          "internalType": "uint256"
        }
      ],
      "stateMutability": "view"
    },
    {
      "type": "function",
      "name": "outcomeRevealed",
      "inputs": [],
      "outputs": [
        {
          "name": "",
          "type": "bool",
          "internalType": "bool"
        }
      ],
      "stateMutability": "view"
    },
    {
      "type": "function",
      "name": "owner",
      "inputs": [],
      "outputs": [
        {
          "name": "",
          "type": "address",
          "internalType": "address"
        }
      ],
      "stateMutability": "view"
    },
    {
      "type": "function",
      "name": "participants",
      "inputs": [
        {
          "name": "",
          "type": "uint256",
          "internalType": "uint256"
        }
      ],
      "outputs": [
        {
          "name": "",
          "type": "address",
          "internalType": "address"
        }
      ],
      "stateMutability": "view"
    },
    {
      "type": "function",
      "name": "placePrediction",
      "inputs": [
        {
          "name": "_predictedOutcome",
          "type": "uint8",
          "internalType": "enum PredictionMarket.Outcome"
        }
      ],
      "outputs": [],
      "stateMutability": "payable"
    },
    {
      "type": "function",
      "name": "predictions",
      "inputs": [
        {
          "name": "",
          "type": "address",
          "internalType": "address"
        }
      ],
      "outputs": [
        {
          "name": "predictedOutcome",
          "type": "uint8",
          "internalType": "enum PredictionMarket.Outcome"
        },
        {
          "name": "amountWagered",
          "type": "uint256",
          "internalType": "uint256"
        }
      ],
      "stateMutability": "view"
    },
    {
      "type": "function",
      "name": "revealOutcome",
      "inputs": [
        {
          "name": "_actualOutcome",
          "type": "uint8",
          "internalType": "enum PredictionMarket.Outcome"
        }
      ],
      "outputs": [],
      "stateMutability": "nonpayable"
    },
    {
      "type": "function",
      "name": "totalWageredOnA",
      "inputs": [],
      "outputs": [
        {
          "name": "",
          "type": "uint256",
          "internalType": "uint256"
        }
      ],
      "stateMutability": "view"
    },
    {
      "type": "function",
      "name": "totalWageredOnB",
      "inputs": [],
      "outputs": [
        {
          "name": "",
          "type": "uint256",
          "internalType": "uint256"
        }
      ],
      "stateMutability": "view"
    },
    {
      "type": "function",
      "name": "totalWagers",
      "inputs": [],
      "outputs": [
        {
          "name": "",
          "type": "uint256",
          "internalType": "uint256"
        }
      ],
      "stateMutability": "view"
    },
    {
      "type": "event",
      "name": "OutcomeRevealed",
      "inputs": [
        {
          "name": "actualOutcome",
          "type": "uint8",
          "indexed": false,
          "internalType": "enum PredictionMarket.Outcome"
        }
      ],
      "anonymous": false
    }
  ],
  "bytecode": {
    "object": "0x6080604052348015600f57600080fd5b50600280546001600160a01b031916331790556109c8806100316000396000f3fe6080604052600436106100a05760003560e01c80637e8946eb116100645780637e8946eb146101e45780637ff7a0cd1461020b5780638da5cb5b1461022d57806397603bd51461024d5780639864eb991461027c578063c1c622601461029257600080fd5b80631b4cdb021461010f57806335c1d3491461013857806335fa61fa146101705780633b123382146101b857806367075032146101ce57600080fd5b3661010a5760405162461bcd60e51b815260206004820152602f60248201527f506c65617365207573652074686520706c61636550726564696374696f6e206660448201526e3ab731ba34b7b7103a37903132ba1760891b60648201526084015b60405180910390fd5b600080fd5b34801561011b57600080fd5b5061012560075481565b6040519081526020015b60405180910390f35b34801561014457600080fd5b50610158610153366004610849565b6102a5565b6040516001600160a01b03909116815260200161012f565b34801561017c57600080fd5b506101aa61018b366004610862565b6000602081905290815260409020805460019091015460ff9091169082565b60405161012f9291906108ca565b3480156101c457600080fd5b5061012560065481565b3480156101da57600080fd5b5061012560035481565b3480156101f057600080fd5b506004546101fe9060ff1681565b60405161012f91906108e5565b34801561021757600080fd5b5061022b6102263660046108f9565b6102cf565b005b34801561023957600080fd5b50600254610158906001600160a01b031681565b34801561025957600080fd5b5060045461026c90610100900460ff1681565b604051901515815260200161012f565b34801561028857600080fd5b5061012560055481565b61022b6102a03660046108f9565b6103e7565b600181815481106102b557600080fd5b6000918252602090912001546001600160a01b0316905081565b6002546001600160a01b0316331461031a5760405162461bcd60e51b815260206004820152600e60248201526d139bdd08185d5d1a1bdc9a5e995960921b6044820152606401610101565b600454610100900460ff16156103725760405162461bcd60e51b815260206004820152601860248201527f4f7574636f6d6520616c72656164792072657665616c656400000000000000006044820152606401610101565b6004805482919060ff19166001838181111561039057610390610892565b02179055506004805461ff0019166101001790556040517fba2e9149ccafd2699f45e87c96f4791ae1b7482c5237dcce5ae8a5ce24dec305906103d49083906108e5565b60405180910390a16103e4610587565b50565b60035442106104385760405162461bcd60e51b815260206004820152601860248201527f42657474696e6720706572696f642068617320656e64656400000000000000006044820152606401610101565b600034116104805760405162461bcd60e51b815260206004820152601560248201527426bab9ba103bb0b3b2b91039b7b6b29022ba3432b960591b6044820152606401610101565b604051806040016040528082600181111561049d5761049d610892565b815234602091820152336000908152908190526040902081518154829060ff1916600183818111156104d1576104d1610892565b0217905550602091909101516001918201558054808201825560009182527fb10e2d527612073b26eecdfd717e6a320cf44b4afac2b0732d9fcbe2b7fa0cf60180546001600160a01b0319163317905581600181111561053357610533610892565b0361055557346005600082825461054a9190610930565b9091555061056d9050565b34600660008282546105679190610930565b90915550505b346007600082825461057f9190610930565b909155505050565b60008060045460ff1660018111156105a1576105a1610892565b036105af57506005546105b4565b506006545b4760008290036106c4576007548110156106105760405162461bcd60e51b815260206004820152601d60248201527f496e73756666696369656e7420636f6e74726163742062616c616e63650000006044820152606401610101565b6002546007546040516000926001600160a01b031691908381818185875af1925050503d806000811461065f576040519150601f19603f3d011682016040523d82523d6000602084013e610664565b606091505b50509050806106bf5760405162461bcd60e51b815260206004820152602160248201527f4661696c656420746f207472616e736665722066756e647320746f206f776e656044820152603960f91b6064820152608401610101565b505050565b60005b6001548110156106bf576000600182815481106106e6576106e6610943565b60009182526020808320909101546001600160a01b0316808352908290526040808320815180830190925280549294509091829060ff16600181111561072e5761072e610892565b600181111561073f5761073f610892565b815260019182015460209091015260045491925060ff9091169081111561076857610768610892565b8151600181111561077b5761077b610892565b0361083f5760008560075483602001516107959190610959565b61079f9190610970565b90506000836001600160a01b03168260405160006040518083038185875af1925050503d80600081146107ee576040519150601f19603f3d011682016040523d82523d6000602084013e6107f3565b606091505b505090508061083c5760405162461bcd60e51b815260206004820152601560248201527411985a5b1959081d1bc81cd95b99081c995dd85c99605a1b6044820152606401610101565b50505b50506001016106c7565b60006020828403121561085b57600080fd5b5035919050565b60006020828403121561087457600080fd5b81356001600160a01b038116811461088b57600080fd5b9392505050565b634e487b7160e01b600052602160045260246000fd5b600281106108c657634e487b7160e01b600052602160045260246000fd5b9052565b604081016108d882856108a8565b8260208301529392505050565b602081016108f382846108a8565b92915050565b60006020828403121561090b57600080fd5b81356002811061088b57600080fd5b634e487b7160e01b600052601160045260246000fd5b808201808211156108f3576108f361091a565b634e487b7160e01b600052603260045260246000fd5b80820281158282048414176108f3576108f361091a565b60008261098d57634e487b7160e01b600052601260045260246000fd5b50049056fea26469706673582212204f4c8140aeb00845a8ff9bb5e027a99628dbb025ced8e8dcb50e68dcfe95be1364736f6c634300081b0033",
    "linkReferences": {}
  },
  "methodIdentifiers": {
    "actualOutcome()": "7e8946eb",
    "bettingEndTime()": "67075032",
    "outcomeRevealed()": "97603bd5",
    "owner()": "8da5cb5b",
    "participants(uint256)": "35c1d349",
    "placePrediction(uint8)": "c1c62260",
    "predictions(address)": "35fa61fa",
    "revealOutcome(uint8)": "7ff7a0cd",
    "totalWageredOnA()": "9864eb99",
    "totalWageredOnB()": "3b123382",
    "totalWagers()": "1b4cdb02"
  },
  "id": 0
}